:020000040800F2
:10000000C08A02208902000891440008AD0200085D
:100010008F440008251700081F4C0008000000004E
:10002000000000000000000000000000D1010008F6
:10003000011C00080000000025020008D945000846
:10004000A3020008A3020008A3020008A3020008FC
:10005000A3020008A3020008A3020008A3020008EC
:10006000A3020008A3020008A3020008A3020008DC
:10007000A3020008A3020008A3020008A3020008CC
:10008000A3020008A3020008A3020008A3020008BC
:10009000A3020008A3020008A3020008A3020008AC
:1000A000A3020008A3020008A3020008A30200089C
:1000B000A3020008A3020008A3020008A30200088C
:1000C000A3020008A3020008A3020008A30200087C
:1000D000A3020008A3020008A3020008A30200086C
:1000E000A3020008A3020008A3020008A30200085C
:1000F000A3020008A3020008A3020008A30200084C
:10010000A3020008A3020008A3020008A30200083B
:10011000A3020008A3020008A3020008A30200082B
:10012000A3020008A3020008A3020008A30200081B
:10013000A3020008551C0008A3020008A30200083F
:10014000A3020008A3020008A3020008A3020008FB
:10015000A3020008A3020008A3020008A3020008EB
:10016000A3020008A3020008A3020008A3020008DB
:10017000A3020008A3020008A30200080000000078
:10018000A3020008A3020008A3020008A3020008BB
:10019000A3020008A3020008A3020008A3020008AB
:1001A000A3020008A3020008A3020008DFF80CD095
:1001B00000F044FE004800471DAF0008C08A02203E
:1001C000EFF308807047EFF3098070476846704787
:1001D0002A4B19680868B0E8F04F80F30988BFF32C
:1001E0006F8F4FF0000080F311887047000000000F
:1001F00006480068006880F3088862B661B6BFF3FD
:100200004F8FBFF36F8F00DF00BF00BF08ED00E02E
:10021000DFF80C00016841F470010160704700BF15
:1002200088ED00E0EFF30980BFF36F8F134B1A687E
:100230001EF0100F08BF20ED108A20E9F04F10606B
:1002400008B44FF0500080F31188BFF34F8FBFF315
:100250006F8F13F06BFD4FF0000080F3118808BC26
:1002600019680868B0E8F04F1EF0100F08BFB0EC36
:10027000108A80F30988BFF36F8F70472C0000202D
:10028000EFF30580704700000648804706480047A6
:10029000FEE7FEE7FEE7FEE7FEE7FEE7FEE7FEE736
:1002A000FEE7FEE7A9460008AD0100087046694672
:1002B00005F04CFDFFF7FEFF2DE9F05F054600203D
:1002C00092469B4688460646814640241BE02846C7
:1002D00041464746224600F068FB53465A46C01A3C
:1002E000914110D311461846224600F04FFB2D1ABB
:1002F00067EB01084F4622460120002100F046FB33
:1003000017EB00094E41201EA4F10104DFDC484632
:1003100031462A464346BDE8F09F0000004870473A
:10032000A04C010810B50446FFF7F8FF0068005D17
:1003300000F0010010BDA0F14101192900D82030C2
:10034000704700000649074A0868504343F23902E3
:100350001044086040087047014908607047000079
:10036000D40100206D4EC64110B5431A934209D204
:100370008318881803E010F8011D03F8011D521EB0
:10038000F9D210BD40EA01039B0703D009E008C978
:10039000121F08C0042AFAD203E011F8013B00F84A
:1003A000013B521EF9D210BDD2B201E000F8012B80
:1003B000491EFBD270470022F6E710B513460A46E5
:1003C00004461946FFF7F0FF204610BD10B504465D
:1003D00004E00B7800F8013B03B1491C521EF8D22F
:1003E000204610BD421C10F8011B0029FBD1801AC9
:1003F000704710B5002200E0521C835C8C5CA34265
:1004000001D1002BF8D1D8B2E1B2401A10BD30B5FD
:1004100004460020034600E05B1C934203D2E05CEC
:10042000CD5C401BF8D030BD034611F8012B00F81D
:10043000012B002AF9D11846704730B50546002037
:10044000034600E05B1C934205D2EC5CC85C201ABA
:1004500001D1002CF6D130BD0FB400B58DB010A97C
:1004600009900B9000914FF0FF300A9000200C9003
:1004700005480690054807906A4609A80F9900F0BC
:10048000ABFA0DB05DF814FBF5090008130A00087B
:100490002DE9FF4F087881B09946FF2805D0491C07
:1004A0002D2804D00024002308E000230BE00124C1
:1004B000F9E703EB830300EB4303491C0878FF28AB
:1004C000F7D104B15B4200200090147801462D2C36
:1004D00001D02B2C04D1521C2D2C12D000240094BE
:1004E00000251678FF2E0ED00A24A0FB04C801FBBD
:1004F0000481002700FB0711521C16EB0C00694118
:10050000EFE70124EBE7994450EA01020ED0002402
:10051000AA4D2646DFF8A88200F050FC82468B46A2
:10052000B9F1000009DAC9F100071BE001980021C8
:10053000C0E9001105B0BDE8F08F074612E0F807EA
:1005400007D022462B463046414600F0C5FB064602
:10055000884622462B461046194600F0BDFB04464D
:100560000D467F10002FEAD1B9F1000F3246434605
:100570005046594602DA00F027F901E000F0ACFBE2
:10058000009A0AB181F00041019AC2E90001D1E765
:100590002DE9FF4F1F468DB0D7E901464FF0FF38D8
:1005A0002E2045464FF000090B90B9696D1C0E983E
:1005B0008847396A824688470028F6D1BAF1FF3F5A
:1005C0000AD024F4D064002E11DDBAF12B0F08D02C
:1005D000BAF12D0F0BD102E0404611B0ABE744F465
:1005E0008064B9696D1C0E9888478246761E6946FC
:1005F000600501D52D2000E02B208DF8000001F1D1
:10060000010B0DF1200809E0B9696D1C0E988847AF
:1006100082460F9844F40074761E0560002E02DDB9
:10062000BAF1300FF0D00B998A453ED144F08004E6
:1006300006E00F99681CA9F1010944F400740860F0
:10064000B9696D1C761E0E98884782463028F0D016
:100650002BE00B998A4505D1200603D444F0800491
:10066000761E18E0504604F0B1FC08B30DF11301FA
:10067000761E44F400748B4508D2AAF130000BF8C2
:10068000010B200607D5A9F1010003E0200602D4E2
:1006900009F101008146A00502D50F99681C086088
:1006A000B9696D1C0E9888478246002ED1DC53E054
:1006B000002E51DDBAF1650F02D0BAF1450F4BD1D2
:1006C000A00549D5B9696D1C24F44074761E0E98B6
:1006D00088478246002E0CDD2B2804D0BAF12D0F5E
:1006E00007D144F48074B9696D1C0E98884782461E
:1006F000761EE00501D52D2100E02B2108F8011B15
:10070000CDF82C8021E00DF12901761E44F400740F
:1007100088450CD2AAF1300010F0FF0088F80000E4
:1007200002D10B99884509D908F1010806E0E005D6
:1007300001D5244801E042F20F708146B9696D1C71
:100740000E98884782460F980560002E04DD5046BB
:1007500004F03CFC0028D6D1F9690E988847FF20A8
:100760008BF8000088F800000020069007904B46A8
:100770006A4608A906A8FFF78BFEA00502D46FF011
:1007800001002AE714F0240F0AD0E00714D1DDE9B4
:1007900006123868031D3B600068C0E900120BE0D8
:1007A000DDE9060100F02EFB0146E00704D13868C0
:1007B000021D3A600068016028460EE700002440F0
:1007C0000000F03FF1D8FFFF2DE9F04D81EA03046E
:1007D00004F0004B21F0004514464FF0000A23F0CE
:1007E000004150EA050220D054EA01021DD0C5F3B1
:1007F0000A570246C5F31303C1F31300C1F30A56A7
:1008000040F4801543F48013A7EB0608101BD6466E
:1008100008F2FD3873EB050002D308F1010801E08E
:1008200092185B41B8F1000F03DA00200146BDE8E1
:10083000F08D00204FF48011064684460EE0171B11
:1008400073EB050705D3121B63EB050306434CEA64
:10085000010C49084FEA300092185B4150EA010749
:10086000EDD152EA030012D082EA040083EA0501C6
:10087000084305D0101BAB4106D20122002306E03D
:1008800000224FF0004302E06FF0010253101AEB18
:1008900006004CEB085110EB0A0041EB0B01BDE8E0
:1008A000F04D00F015B90EB540F233410291002130
:1008B000CDE900110A460B4600F019F903B000BD5E
:1008C00070B5C1F30A5201F000450024C1F31301D1
:1008D00040F2FF3341F480119A4201DA002070BDEA
:1008E00040F233439A42A2F2334203DC524200F018
:1008F0005CF800E090402C43F1D0404270BD000015
:1009000030B5041E71F1000404DB4FF00044404296
:1009100064EB0101141E73F1000405DB1C464FF06B
:100920000043524263EB04038B4208BF824230BD56
:1009300030B5041E71F1000404DB4FF00044404266
:1009400064EB0101141E73F1000405DB1C464FF03B
:100950000043524263EB0403994208BF904230BD0A
:1009600030B50B46014600202022012409E021FA7F
:1009700002F59D4205D303FA02F5491B04FA02F57C
:100980002844151EA2F10102F1DC30BD202A04DB4F
:10099000203A00FA02F1002070479140C2F1200392
:1009A00020FA03F3194390407047202A04DB203AD1
:1009B00021FA02F00021704721FA02F3D040C2F17F
:1009C0002002914008431946704700000268114414
:1009D0001378016018467047D16004495161044999
:1009E000116200211161114600F04CBACD090008D6
:1009F00025030008426842B1016811F8013B23B1A8
:100A0000521EC0E90012184670470121C160881EBD
:100A1000704742685AB1C368016843B983688B4222
:100A200005D0491E521CC0E90012002070474FF04B
:100A3000FF3070470FB4002300B589B00CA90091B6
:100A40000B996FF00042CB601E4B06931E4B079331
:100A50000423CDE901321D4A089202466B4600206C
:100A6000FFF796FD09B05DF814FB70B586B0064639
:100A70004FF0FF300091CDE90101002015460C46F2
:100A800004903246694604A8FFF7D4FF0246049852
:100A9000211825B108B1084600E0204628600498D6
:100AA00000280DD0002A02DD0098884208D0081BDB
:100AB0000094CDE901043246694604A8FFF7BAFF65
:100AC00006B070BDF5090008130A000825030008E8
:100AD00010B5141E73F1000408DA401C41F1000146
:100AE00092185B411A4301D120F0010010BD2DE99D
:100AF000F04D92469B4611B1B1FA81F202E0B0FA94
:100B000080F220329046FFF741FF04460F4640EA4C
:100B10000A0041EA0B0153465A46084313D01146D6
:100B200053EA010019D0C8F140025046FFF73DFFDB
:100B300005460E46504659464246FFF727FF0843F2
:100B400005D0012004E020463946BDE8F08D0020A4
:100B5000054346EAE0762C4337430A986305E40AE6
:100B6000A0EB08000022FD0A44EA47540A3002D5EF
:100B700000200146E9E7010510196941DDE9084552
:100B800000196941BDE8F04DA2E72DE9FE4F80460E
:100B900081EA0300C00F0C46009021F0004123F0D1
:100BA0000045B8EB0200A94105D2404621469046D7
:100BB0001C460B46024623F00040104347D0270D49
:100BC000C7F30A00C3F30A510290401A019040286B
:100BD0006BDAC3F3130040F4801B0098924620B1F7
:100BE0000023D2EB030A63EB0B0B01985946C0F1CB
:100BF00040025046FFF7CAFE06460D46504659468B
:100C0000019A00F02DF910EB08006141002487EAF9
:100C1000115284EAE7731A4340D0009A62B3019AF2
:100C2000012A4FEA075215DC001B61EB02014FF06D
:100C3000004202EA0752CDE90042001C41F5801152
:100C400032462B46FFF753FF03B0BDE8F08F404616
:100C50002146F9E7001B61EB0201001C41F58013FE
:100C600000185B412018A2F5001747EB030140EA8A
:100C7000D570B6196D4111E06D084FEA360645EAA8
:100C8000C0754FEA0752001B61EB0201001C41F5E1
:100C9000801149084FEA30000019514132462B4675
:100CA00003B0BDE8F04FFFF713BF009801224000EA
:100CB0000023D0EB020263EBE073009821464FEA79
:100CC000E074B8EB000061EB0401E9E783F0004356
:100CD0005BE781F0004158E72DE9FE4F81EA03040C
:100CE00004F0004421F0004100944FF0000B23F089
:100CF000004350EA01045ED052EA03045BD0C3F320
:100D00000A54C1F30A552C44A4F2F3340194A0FB15
:100D10000254C1F3130141F48011C3F3130343F4EC
:100D2000801301FB024400FB034E840A970A44EA45
:100D3000815447EA8357A4FB076802958D0A05FB97
:100D400007854FEA932C04FB0C542705029D4FEABC
:100D5000065847EA1637B5EB08056EEB070C870E09
:100D6000920E47EA811742EA8312A7FB0201B6EB13
:100D70000B0164EB00042B0D43EA0C335E1844EBCB
:100D80001C50DA465146E7FB0201C5F313044FEA53
:100D90000B3343EA14534FEA0432019C43EA06033F
:100DA000A4F10C040294009CCDE900B4FFF79FFE6F
:100DB00003B0BDE8F08F00200146F9E70EB540F220
:100DC000334202920022CDE900221346FFF78FFE44
:100DD00003B000BDC1F30A52C1F3130140F2FF3367
:100DE00041F480119A4202DA00200146704740F235
:100DF00033439A42A2F2334202DC5242FFF7D5BD9E
:100E0000FFF7C4BD01F0004330B421F0004150EAC7
:100E1000010206D00A0DA2F56072C1F31301002A87
:100E200002DC30BC00207047440F44EAC104C1001A
:100E3000E01830BC00EBC25000F0BAB9064C074DC8
:100E400006E0E06840F0010394E80700984710349A
:100E5000AC42F6D3FFF7AEF9B4560108D4560108F8
:100E6000202A06DBCB17203A41FA02F043EAE0736E
:100E700006E041FA02F3D040C2F12002914008435B
:100E8000194670472DE9F34F8BB04FF0000801F180
:100E90000C000C464FF0010B46460DF1080A01907C
:100EA0006269012101989047051E2DD0252D2CD077
:100EB000216A8847C0B16269012101989047216A7F
:100EC00088470028F7D1411E62690198904700E0E9
:100ED000761CA1690B988847216A88470028F7D1BA
:100EE000E1690B988847DBE7A1690B9888470746BB
:100EF000A84201D1761CD3E7E1690B9888477F1C93
:100F000002D1B8F1000F6FD046E1002762693D467B
:100F10003946019890472A2804D162690121019835
:100F200090470125DFF8849262690121019890477A
:100F3000A0F130010A290AD24F45E5DC07EB870111
:100F400000EB4107303FDFD445F01005ECE7E90640
:100F500001D46FF000476C280AD04C2814D06828C0
:100F600015D06A280DD074281CD07A281AD01DE01C
:100F700062690121019890476C2802D045F0040570
:100F800014E045F002050DE045F020050AE0626935
:100F9000012101989047682802D045F0080505E036
:100FA00045F400656269012101989047C4E9015741
:100FB00065283DD019DC58287AD00CDC452837D07C
:100FC00004DC252826D0412831D131E046282FD015
:100FD00047282CD12CE05B2877D0612828D06328C3
:100FE0007CD0642823D15AE0D0E06F2848D008DCB8
:100FF00066281DD067281BD0692821D06E2816D1FD
:1010000027E0702845D0732868D0752847D0782805
:101010000DD14DE0A1690B988847054625283FF47E
:1010200069AFE1690B9888476D1C3FF46AAFB3E084
:1010300023466A466FF001000B99FFF7A9FA9EE07C
:1010400045F040006060A80723464FF0000236D408
:101050003EE0E8077FF447AF2068011D216000688B
:10106000290501D506701BE7290701D5068017E77A
:10107000A90703D5F117C0E9006111E706600FE782
:1010800045F040006060A80723464FF0080216D4E0
:101090001EE040F60E0125EA0100606016E045F012
:1010A00040006060A80723464FF00A0207D40FE013
:1010B00045F040006060A80708D5234610226FF075
:1010C00001000B99AFF3008059E007E0234610229E
:1010D0006FF001000B99AFF3008050E04FF0000972
:1010E0004F464B46632802D05B2806D040E0E80616
:1010F00001D40120A06001273AE062690121019832
:1011000090475E2805D14FF0010962694946019870
:101110009047216939B900210A46534643F82120F6
:10112000491C0829FADBB0B3216969B9C11700EB82
:10113000D16253110AEB830122F01F02821A0120AF
:101140000B68904003430B6062690121019890474E
:101150005D28E8D1B9F1000F09D00020514651F8BF
:101160002020D24341F82020401C0828F7DB02ABA6
:10117000224600976FF001000B99AFF30080002822
:101180000CDA401C08D1BBF1000F05D04FF0FF3046
:101190000DB0BDE8F08FFFE74046F9E7E90701D160
:1011A00008F1010806444FF0000B79E6CCCCCC0CDA
:1011B0000029A8BF7047401C490008BF20F001006B
:1011C000704710B4B0FA80FC00FA0CF050EA010449
:1011D00004BF10BC704749B1CCF1200421FA04F4DB
:1011E00011FA0CF118BF012121430843A3EB0C01B4
:1011F000CB1D4FEA00614FEA102042BF002010BC17
:10120000704700EBC35010440029A4BF10BC7047C6
:10121000401C490008BF20F0010010BC704730B5E9
:101220008C1810F8012B12F00F0301D110F8013BBC
:10123000120906D110F8012B03E010F8015B01F848
:10124000015B5B1EF9D101E001F8013B521EFBD1AD
:10125000A142E6D3002030BD1CB50421002208467F
:1012600012F0C8FE3049C86010B130A003F0A4FDF0
:1012700003F044FA0AF00AFB35A003F09DFD3F4855
:1012800003F09AFD3E4803F097FD3EA003F094FD65
:1012900047A003F091FD4DA003F08EFD40F25B727C
:1012A00055A15EA003F088FD66A169A003F084FD4E
:1012B0006DA172A003F080FD76A17BA003F07CFD00
:1012C0007FA183A003F078FD86A18AA003F074FDBE
:1012D00012F0C6FA14490220091DCDE900014202AC
:1012E00000238BA18D4813F03BF9012805D18CA078
:1012F00003F062FD8EA003F05FFD0B490120083171
:10130000CDE900014202002391A1944813F028F98D
:10131000012807D182A003F04FFDBDE81C4090A03A
:1013200003F04ABD1CBD000010000020B4B4BDA8ED
:101330004D5154545F446174615F5175657565CF5B
:10134000FBCFA2B6D3C1D0B3C9B9A6210D0A000004
:10135000CAB9D3C3BFAAB7A2B0E5BDD3C8EBB0D951
:10136000B6C8D4C6A3ACB2A2C7D2C9CFB1A8CEC2A8
:10137000CAAAB6C8CAFDBEDD0A0A0000A44C01080C
:10138000004D01084950B5D8D6B7BEF9D4DA557327
:1013900065722F617263682F7379735F617263681E
:1013A0002E68CEC4BCFED6D0D0DEB8C40A0A000077
:1013B000B2CEBFBCD2B0BBF04C776970204D515457
:1013C0005420C0FDB3CC0A0A00000000D4DABFAA42
:1013D000B7A2B0E5B5C46468743131BDD3BFDABD1E
:1013E000D3C9CF4448543131CEC2CAAAB6C8B4AB6F
:1013F000B8D0C6F70A0A00007375367A3462682ED0
:101400006D7174742E696F742E677A2E62616964CF
:10141000756263652E636F6D00000000B0D9B6C8B9
:10142000D4C6D3F2C3FB2F4950B5D8D6B7203A2043
:101430002573200920B6CBBFDABAC5203A2025642F
:10144000200A0A00636C69656E745F4944000000FD
:10145000B0D9B6C8D4C6434C49454E545F49442020
:101460003A2025730A0A00007375367A3462682FB1
:1014700073746D333266343239000000B0D9B6C8A7
:10148000D4C6555345525F4E414D45203A202573F1
:101490000A0A00005A384E305A41774637376535C8
:1014A0005664324E00000000B0D9B6C8D4C65041D0
:1014B0005353574F5244203A2025730A0A00000024
:1014C000656E7669726F6E6D656E744461746100ED
:1014D000B0D9B6C8D4C6544F504943203A202573DA
:1014E0000A0A0000746573745F6D657373616765E4
:1014F00000000000B0D9B6C8D4C6544553545F4D5F
:10150000455353414745203A2025730A0A000000FD
:1015100054657374315F5461736B00009D4700081C
:101520000D0A5B44454255475D203E3E20000000C9
:101530004372656174652054657374315F546173DF
:101540006B207375636573732E2E2E0D0A000000D9
:1015500054657374325F5461736B00005D4800081A
:101560004372656174652054657374325F546173AE
:101570006B207375636573732E2E2E0A0A000000AC
:1015800010B501F0C7FB00F009FC03F03BF802F0D6
:101590003BFA00F01BFA05A206A108A004F00AFD20
:1015A000BDE8104007A003F007BC000056302E3104
:1015B0002E30000056312E302E30000059482D4676
:1015C000343239002D2D2D2D2D2D2D2D2D2D2D206D
:1015D0004C7769702064656D6F202D2D2D2D2D2D7C
:1015E0002D2D2D2D2D2D0A00F0B589B0324800F09B
:1015F0009AFC32480024016841F48071016000685F
:101600000125022600F480700790CDE904562C4F86
:10161000039502A93846029601F070F900220221D2
:10162000384601F033FB052000F0F6FB01220221D1
:10163000384601F02BFB052000F0EEFB2148016845
:1016400041F0010101608DF800608DF801401A48F9
:101650008DF802408DF804408DF803408DF8054068
:101660001949C0E9001504826946C0E90515E90574
:10167000C0E9074149128160C910C16000F0DCFC7B
:10168000040012A014D003F097FB14A003F094FB05
:101690000823194A1949084800F009FC184A082388
:1016A000A2F50071044800F0C9FB09B02046F0BD66
:1016B00003F082FB13A0E9E7380200203038024033
:1016C0000020024000900240008002400D0A5B446E
:1016D000454255475D203E3E20000000657468206D
:1016E000686172647761726520696E6974206661F1
:1016F000696C642E2E2E0A00203400208003002006
:101700008004002065746820686172647761726586
:1017100020696E6974207375636573732E2E2E0AAB
:1017200000000000FEE700000648016841F08071FB
:101730000160054800214160016841F0010101603C
:1017400070470000FCED00E0001000E011B50A4C0D
:10175000009B0020B42162684B4361689142FCD039
:1017600002D9A1EB020202E06FEA02020A4410442D
:101770000A469842F1D318BD001000E0F8B569465A
:1017800030A00AF017FB684607F016FB074636A0A4
:1017900003F012FB3A462BA137A003F00DFB3E4CA1
:1017A00040F25B7530A003F007FB3CA003F004FBA4
:1017B0002DA003F001FB2A46394641A003F0FCFAB4
:1017C00040F6B8362946384611F0DCFA6060002849
:1017D00025A013DB03F0F0FA42A003F0EDFA22A0FB
:1017E00003F0EAFA45A003F0E7FA02F065FD0028ED
:1017F0001DA00CD003F0E0FA48A018E003F0DCFADA
:101800004FA003F0D9FA304612F06EF9DAE703F090
:10181000D3FA57A003F0D0FA01225AA1606802F06F
:10182000CDFC002810A007DA03F0C6FA59A003F097
:10183000C3FA11F089FAB5E703F0BEFA5BA003F032
:10184000BBFAF8BD7375367A3462682E6D717474A4
:101850002E696F742E677A2E6261696475626365A2
:101860002E636F6D000000000D0A5B444542554732
:101870005D203E3E20000000686F7374206E616D35
:1018800065203A202573202C20686F73745F69707F
:10189000203A2025730A000020000020312EBFAA24
:1018A000CABCC1ACBDD3B6D4D3A6D4C6C6BDCCA821
:1018B000B5C4B7FECEF1C6F72E2E2E0A00000000EA
:1018C000B7FECEF1C6F74950B5D8D6B7A3BA25733F
:1018D000A3ACB6CBBFDABAC5A3BA253064A3A10ABC
:1018E00000000000C1ACBDD3D4C6C6BDCCA8B7FEB5
:1018F000CEF1C6F7B3C9B9A6A3A10A00322E4D5145
:101900005454D3C3BBA7C3FBD3EBC3DCD4BFD1E9CF
:10191000D6A4B5C7C2BC2E2E2E0A00004D51545479
:10192000D3C3BBA7C3FBD3EBC3DCD4BFD1E9D6A4DD
:10193000B5C7C2BCCAA7B0DC2E2E2E0A000000001C
:10194000C1ACBDD3D4C6C6BDCCA8B7FECEF1C6F7D8
:10195000CAA7B0DCA3ACB5C8B4FD33C3EBD4D9B3CC
:10196000A2CAD4D6D8D0C2C1ACBDD3A3A10A0000AC
:10197000332EBFAACABCB6A9D4C4CFFBCFA22E2E89
:101980002E0A0000656E7669726F6E6D656E744426
:1019900061746100BFCDBBA7B6CBB6A9D4C4CFFBE1
:1019A000CFA2CAA7B0DC2E2E2E0A0000342EBFAA6A
:1019B000CABCD1ADBBB7BDD3CAD5B6A9D4C4B5C412
:1019C000CFFBCFA22E2E2E0A0000000008480749A8
:1019D00001604FF4E131416000218160C16001612B
:1019E00081610C21416101F0C1BE00000010014085
:1019F000F8010020094808B5016841F010010160B4
:101A0000006800F01000009000F00CF80122BDE822
:101A100008400421024801F039B900003038024082
:101A20000010024000B585B0042000900120019014
:101A3000022003906946024800F060FF05B000BD37
:101A4000001002402DE9F047002635464FF47A7A1F
:101A5000DFF884804FF0010906E0641CA4B254450D
:101A600024D80120FFF772FE04214746404601F0CA
:101A7000E1F80028F1D03220FFF768FE00240421AD
:101A8000B846384601F0D6F8012815D0C5F107014F
:101A900009FA01F086436D1CEDB2082DE4D33046FF
:101AA000BDE8F087641CA4B2BC4201D90020F7E76E
:101AB0000120FFF74BFE00E057460421404601F0AD
:101AC000B9F80128EED0C5F1070109FA01F00024A8
:101AD000C0B20643DFE70000001002402DE9F043EA
:101AE00004462DED028B85B0FFF79CFF414E00228E
:101AF0000421304601F0CAF844F25060FFF726FE98
:101B000001220421304601F0C1F81E20FFF71EFE1D
:101B10000420009000200190012002906946304688
:101B200000F0ECFE0421304601F084F800285FD17B
:101B3000002506E06D1CADB2642D59D80120FFF7D9
:101B400005FE0421304601F075F80028F2D000258A
:101B500006E06D1CADB2642D4AD80120FFF7F6FDFA
:101B60000421304601F066F80128F2D0FFF76AFF41
:101B70002070FFF767FF6070FFF764FFA070FFF74A
:101B800061FFE070FFF75EFF207105462078667800
:101B9000814600EBC00101EB001006EB8000FEF770
:101BA00082FE9FED158B53EC182BFEF70DFEC4E95A
:101BB0000201A778E07807EBC701804601EB071127
:101BC00000EB8100FEF76FFE53EC182BFEF7FCFDD7
:101BD000C4E9040109EB060107EB08000844C1B29F
:101BE0008D4205D1012005B0BDEC028BBDE8F0832C
:101BF0000020F8E7001002400000000000005940FB
:101C000070470000064908B509684FF4FA52B1FB65
:101C1000F2F14143009100BF491E0091FBD208BD83
:101C20000000002038B50446006800F58050816946
:101C300041F480118161206800F580508069009036
:101C40000120FFF7DFFF2068009900F580508161D7
:101C500038BD000010B55020EFF3118480F31188D7
:101C6000BFF34F8FBFF36F8F024800F0A7F984F3E3
:101C7000118810BD380200202DE9F041044621B141
:101C80004FF40060E060C000A060E069002600281A
:101C900061D035462068402702683A490A40D4E9B5
:101CA00002131943294341F4007111430160206874
:101CB0000568012000F0B0F82068056020684760E2
:101CC00020684568012000F0A7F82068456020687A
:101CD00086602068C660206881694FF641721140B5
:101CE00041F08001816120688569012000F094F84D
:101CF000206885612068C6612068C569012000F000
:101D00008BF82068C561206800F5805081691E4A03
:101D100011401E4A0A438261206800F5805085699F
:101D2000012000F079F8206800F580508561206876
:101D3000174900F580500160206800F58050056863
:101D4000012000F069F8206800F580500560A06966
:101D5000012803D009E04FF480659BE7206800F577
:101D60008050C1690B4A1143C16160690A4A818888
:101D700011640178D0F8010041EA00205064BDE808
:101D8000F08100000F8120FF233FDEF804002002D5
:101D90008020C1024000010000800240194808B5BF
:101DA000016841F080010160016801F0800100914B
:101DB000016841F004010160016801F00401009133
:101DC000016841F001010160016801F00101009129
:101DD000016841F002010160016801F00201009117
:101DE000016841F040010160016801F0400100918B
:101DF000016841F480710160006800F48070009017
:101E000008BD00003038024002490888421C0A80A0
:101E1000704700002000002070B5044600F06CFF01
:101E20000546601C02D004480078044400F064FFBA
:101E3000401BA042FAD370BD040000202DE9F043FE
:101E400090F845500024012D0DD04FF0010980F885
:101E50004590022580F8445044F2F45C4FF000486D
:101E60005F1E816216E00220BDE8F08301EB44159D
:101E7000C5F80080C4EBC41606EB460602EB8606E6
:101E8000C5E901C6BC4203D205F12006EE6000E0C0
:101E9000E960641C9C42E9D3026802F58052D1607B
:101EA00080F84490002180F845100846DCE72DE9D1
:101EB000F04390F845400025012C0BD04FF0010C69
:101EC00080F845C0022480F844404FF480195F1E1A
:101ED000C1621BE00220BDE8F08301EB4514C4F8A9
:101EE0000090C5EBC51606EB460602EB8606A6601B
:101EF000C6691EB9266846F440062660BD4203D274
:101F000004F12006E66000E0E1606D1C9D42E4D330
:101F1000026802F58052116180F844C0002180F807
:101F200045100846D7E710B50446022084F844005F
:101F3000204600F0C9F9002004F8440F607010BD7D
:101F4000704710B590F84510012913D0012380F88F
:101F50004530022180F84410816A0A680024002A72
:101F600027DB0A68D20518D5826B521C8263012ACE
:101F700002D002E0022010BD016341630A68C2F38F
:101F80000D42121FC263026B92680264C96840F876
:101F9000281F03774477002010BD0A68920503D5F7
:101FA0008363C0E90C1402E0826B521C8263C9682F
:101FB000816200F8443F4470012010BD70B50446B2
:101FC000006800F5805041694FF0000649064FF067
:101FD000010508D5204600F069FA2068402100F587
:101FE0008050416109E04069C0070AD0204600F0F6
:101FF0003BFB206800F58050456184F8445084F82C
:10200000456020684FF4803100F5805041612068C0
:1020100000F58050406900040CD52046FFF790FF82
:1020200020684FF4004100F58050416184F844502D
:1020300084F8456070BD00002DE9FC5F4FF000069C
:102040000400B346009624D06068012804D018B17B
:10205000C02184A003F0DCFBA06928B1012803D0D3
:10206000C12180A003F0D4FBE06928B1012803D08E
:10207000C2217CA003F0CCFB206A30B1B0F5000F88
:1020800003D0C32177A003F0C3FB94F8440018B138
:1020900007E00120BDE8FC9F84F84560204600F081
:1020A00047F97F48016841F480410160006800F40D
:1020B000804001907B48016821F4000101600168C3
:1020C000226A11430160206800F58050016841F0E8
:1020D0000101016000F010FE05464FF4FA7708E0B8
:1020E00000F00AFE401BB84203D9032004F8440F55
:1020F0006DE0206800F580500068C007F0D12068CE
:10210000006920F01C0501F06FF86749674A014437
:10211000914202D245F0080516E06549654A01443E
:10212000914202D245F00C050EE06349634A014436
:10213000914209D3624908446249884202D245F07B
:10214000040501E045F01005206805614FF40042E8
:102150000021204600F08AFA012500286FD10520D1
:10216000FFF75AFE60684FF400694FF4804A88B365
:1021700000F0C2FD804641F288376A4601212046C0
:1021800000F02CF900F0B8FDA0EB0800B84218D818
:1021900000984007F1D54FF480520021204600F00E
:1021A00065FA00284BD100F0A7FD80466A46012160
:1021B000204600F013F900F09FFDA0EB0800B842A4
:1021C00009D901212046FFF757FD04F8445F032099
:1021D00066705FE716E000988006E7D56A461F2123
:1021E000204600F0FBF850BB0098C10602D5C4F8A9
:1021F0000C9000E0E660400701D5A66029E0C4F835
:1022000008A026E0A06830B1504504D04FF4CD714D
:1022100014A003F0FDFAE068484505D020B140F273
:102220009B1110A003F0F4FAE068A168C00840EA2E
:10223000510082B20021204600F018FA30B101218D
:102240002046FFF719FD84F8445022E70520FFF7E8
:10225000E3FD59462046FFF70FFD84F84450002067
:1022600018E700002E2E5C4C69627261726965731A
:102270005C53544D3332463478785F48414C5F4468
:1022800072697665725C5372635C73746D33326627
:102290003478785F68616C5F6574682E6300000055
:1022A000443802400438014000D3CEFEC0E1E400CF
:1022B00040F1E9FD40787D0100796CFC005A620232
:1022C000001F0AFA80F0FA0210B50068124988422D
:1022D00020D11248016821F080610160016821F07D
:1022E00000610160016821F00071016032210C4839
:1022F00000F020FA86210B4800F01CFA4FF4006130
:10230000094800F017FABDE810404FF4C0410748F3
:1023100000F010BA10BD00000080024030380240CA
:102320000008024000000240000402400018024081
:10233000F0B50068234987B0884240D1322002249A
:10234000002503260B278DE8F10069461E4800F0A2
:10235000D5FA86208DE8F10069461C4800F0CEFAD7
:10236000A0028DE8F1006946194800F0C7FA700331
:102370008DE8F1006946174800F0C0FA00220621F6
:102380003D2000F035FD3D2000F000FD12480168C1
:1023900041F000710160016801F000710591016870
:1023A00041F080610160016801F080610591016880
:1023B00041F000610160006800F00060059007B026
:1023C000F0BD000000800240000802400000024012
:1023D0000004024000180240303802402DE9F04766
:1023E0000446008A91460D46202804D94FF48561A1
:1023F0001FA003F00DFA94F8440082281DD082201B
:1024000084F8440020680169228A4FF6FF7301F0C6
:102410001C0103EAC2220A434FF4F86101EA851164
:10242000114321F0020141F00105056100F064FC57
:10243000064601274FF480380FE00220BDE8F08700
:1024400000F05AFC801B404505D304F8447F00206F
:1024500060700320F2E720680569E807F0D1206882
:10246000406981B2C9F8001084F844700020E5E7A3
:102470002E2E5C4C69627261726965735C53544DB7
:102480003332463478785F48414C5F4472697665F0
:10249000725C5372635C73746D3332663478785F48
:1024A00068616C5F6574682E6300000008B50020E9
:1024B000009008486946006811F0B0FF00980028B5
:1024C00007D005494FF080500860BFF34F8FBFF32E
:1024D0006F8F08BD7801002004ED00E0F8B50446D8
:1024E00090F84500012839D0012584F84550022094
:1024F00084F8440020680026016841F0080101606A
:102500002068006800902846FFF77CFB216800984F
:1025100008602068016841F00401016020680068DB
:1025200000900120FFF76EFB2168009808602046AC
:10253000FFF778FB206800F58050816941F4005175
:102540008161206800F58050816941F0020181615C
:1025500084F8445084F845600020F8BD0220F8BD9E
:10256000F0B590F845300022012B11D0012780F8FA
:102570004570022380F84430002559B1C46A2368AD
:10258000002B0ADA122100F8441F45700120F0BD2B
:102590000220F0BD00F8447FF7E740F2F456B14264
:1025A0000BD9B1FBF6FCB1FBF6F306FB1C1CBCF12E
:1025B000000F00D05B1C012B43D1226842F0405237
:1025C0002260C26AC1F30C015160C16A0A6842F01C
:1025D00000420A60C16AC968C16234E0D4F800C030
:1025E0002CF0405CC4F800C032B9C46AD4F800C012
:1025F0004CF0805CC4F800C0C46A66605C1EA242F5
:1026000014D1C46AD4F800C04CF0005CC4F800C017
:10261000C3F10104C4EBC41404EB4404D0F82CC08F
:1026200001EB8404C4F30C04CCF80440C46AD4F86D
:1026300000C04CF0004CC4F800C0C46A521CE468EE
:10264000C4629A42CAD3016801F580514A695207AF
:1026500005D504224A61016801F580514D6000F8FA
:10266000447F45700020F0BD704700002DE9F04127
:102670000446008A16460D46202804D94FF48E6180
:102680001DA003F0C5F894F8440042281ED0422053
:1026900084F8440020680169228A4FF6FF7301F034
:1026A0001C0103EAC2220A434FF4F86101EA8511D2
:1026B000114341F00305B1B241612068056100F0AA
:1026C0001BFB064601274FF480380FE00220BDE8CF
:1026D000F08100F011FB801B404505D304F8447FD6
:1026E000002060700320F2E720680569E807F0D158
:1026F00084F84470EBE700002E2E5C4C6962726136
:10270000726965735C53544D3332463478785F4850
:10271000414C5F4472697665725C5372635C73749A
:102720006D3332663478785F68616C5F6574682EEB
:10273000630000002DE9F35F544DDFF854A1DFF88A
:1027400054B10446A84220D054451ED05C451CD04C
:102750005148844219D05148844216D0504884428E
:1027600013D05048844210D04F4884420DD04F4877
:1027700084420AD04E48844207D04E48844204D056
:102780004FF4A0714CA003F043F800204FF0010E6D
:102790004FF00F0801990EFA00F31940994270D1D9
:1027A000266847000322BA4096432660C60804EB19
:1027B0008606D6F820C047074FEAD76908FA09F716
:1027C0002CEA070CC6F820C0A6689643A660666887
:1027D0009E436660E3689343E360464A20F0030348
:1027E0001344D3F808288607370F08FA07F606EAD5
:1027F000020CAC4201D100222BE0544501D1012250
:1028000027E05C4501D1022223E0234A944201D112
:1028100003221EE0214A944201D1042219E0204AF9
:10282000944201D1052214E01E4A944201D10622AD
:102830000FE01D4A944201D107220AE01B4A94424C
:1028400001D1082205E01A4A944201D1092200E090
:102850000A22BA40624514D1D3F80828B243C3F81B
:102860000828254A13688B431360121D13688B4395
:102870001360121D13688B431360131D1A688A437B
:102880001A60401C102885D3BDE8FC9F0000024060
:102890000004024000080240000C02400010024008
:1028A0000014024000180240001C024000200240B8
:1028B00000240240002802402E2E5C4C69627261A6
:1028C000726965735C53544D3332463478785F488F
:1028D000414C5F4472697665725C5372635C7374D9
:1028E0006D3332663478785F68616C5F6770696FEA
:1028F0002E63000000300140003C01402DE9F84FFC
:102900000446A9480D46844221D0A84884421ED0DE
:10291000A74884421BD0A748844218D0A6488442C6
:1029200015D0A648844212D0A54884420FD0A548AD
:1029300084420CD0A448844209D0A448844206D0E2
:10294000A348844203D0C321A2A002F061FF2868FB
:102950000104090C01D0000C03D0C4219DA002F099
:1029600057FF6868F8B101281DD011281BD0022834
:1029700019D0122817D0A649884214D0A5498842F8
:1029800011D0A54988420ED0A44988420BD0A44951
:10299000884208D0A349884205D0032803D0C52126
:1029A0008CA002F035FFA86838B1012805D00228B4
:1029B00003D0C62187A002F02BFF00264FF00F0B9B
:1029C0000120B0402F688246074057457ED1686895
:1029D000022801D0122830D1286908B309281FD055
:1029E00001281DD002281BD0032819D0042817D095
:1029F000052815D0062813D0072811D008280FD095
:102A00000A280DD00B280BD00C2809D00D2807D090
:102A10000F2805D00E2803D0D7216EA002F0F8FEB3
:102A2000F00804EB8000026A7107C90E0BFA01F38B
:102A30009A432B698B401343036222687000032181
:102A400001FA00F82979814601F0030122EA08021F
:102A500001FA09F1114321606868012805D00228B4
:102A600003D0112801D012281CD1E86848B10128F0
:102A700007D0022805D0032803D0EA2155A002F090
:102A8000C7FEA068E96820EA080001FA09F10143DD
:102A9000A1606168287921EA0A01C0F30010B04002
:102AA00008436060E168A86821EA080100FA09F0BB
:102AB0000843E0606868C0006FD55B48016841F476
:102AC00080410160006800F4804000E065E0009013
:102AD000564826F003010A18D2F80838B007010F4B
:102AE0000BFA01F083433048844201D100202DE0ED
:102AF0002E48844201D1012028E02D48844201D192
:102B0000022023E02B48844201D103201EE02A4802
:102B1000844201D1042019E02848844201D10520D3
:102B200014E02748844201D106200FE02548844262
:102B300001D107200AE02448844201D1082005E0A1
:102B40002248844201D1092000E00A20884018432D
:102B5000C2F80808364908686A68B843D20300D545
:102B6000384308603249091D08686A68B84392030F
:102B700000D5384308602E49083108686A68B843B0
:102B8000D20200D53843086029490C3108686A68C8
:102B9000B843920200D538430860761C102EFFF42B
:102BA0000FAFBDE8F88F00000000024000040240B3
:102BB00000080240000C02400010024000140240D5
:102BC00000180240001C0240002002400024024085
:102BD000002802402E2E5C4C696272617269657336
:102BE0005C53544D3332463478785F48414C5F44EF
:102BF00072697665725C5372635C73746D333266AE
:102C00003478785F68616C5F6770696F2E6300006D
:102C100000001110000021100000311000001210FF
:102C20000000221000003210443802400030014001
:102C3000003C014070B50C00054604D14FF4C7714B
:102C400003A002F0E5FD2869204000D0012070BDFE
:102C50002E2E5C4C69627261726965735C53544DCF
:102C60003332463478785F48414C5F447269766508
:102C7000725C5372635C73746D3332663478785F60
:102C800068616C5F6770696F2E63000070B51546F0
:102C90000C00064604D140F2AF1108A002F0B8FDC6
:102CA00045B1012D04D04FF4D87104A002F0B0FD5D
:102CB000B46170BD2004B06170BD00002E2E5C4C6C
:102CC00069627261726965735C53544D3332463484
:102CD00078785F48414C5F4472697665725C5372E4
:102CE000635C73746D3332663478785F68616C5FEF
:102CF0006770696F2E6300000148806870470000AC
:102D00000400002002488168027811448160704705
:102D1000040000200B4810B5016841F40071016007
:102D2000016841F480610160016841F480710160D3
:102D3000032000F0ADF80F2000F006F800F024F8B2
:102D4000002010BD003C024070B50D4D04464FF40C
:102D50007A712878B1FBF0F00A490968B1FBF0F00C
:102D600000F0F0FC48B9102C07D200222146501E7A
:102D700000F03EF800206C6070BD012070BD0000C6
:102D800004000020000000207047000010B504007F
:102D900003D5CE2106A002F03BFD04F01F01012067
:102DA00088406109890001F1E021C1F8000110BDEE
:102DB0002E2E5C4C69627261726965735C53544D6E
:102DC0003332463478785F48414C5F4472697665A7
:102DD000725C5372635C73746D3332663478785FFF
:102DE00068616C5F636F727465782E630000000029
:102DF00070B514460D460646102A03D3BA2113A017
:102E000002F006FD102D03D3BB2110A002F000FD3F
:102E10001E480068C0F30223C3F10700042800D94C
:102E20000420191D072901D2002300E0DB1E012226
:102E300002FA00F1491E294099409A40521E224050
:102E40003046BDE87040114301F023BB2E2E5C4C90
:102E500069627261726965735C53544D33324634F2
:102E600078785F48414C5F4472697665725C537252
:102E7000635C73746D3332663478785F68616C5F5D
:102E8000636F727465782E63000000000CED00E043
:102E900010B5044607280BD0062C09D0052C07D006
:102EA000042C05D0032C03D0A22108A002F0B0FC12
:102EB000164A04F0070110684FF6FF03184040EA75
:102EC000012013490843106010BD00002E2E5C4CF9
:102ED00069627261726965735C53544D3332463472
:102EE00078785F48414C5F4472697665725C5372D2
:102EF000635C73746D3332663478785F68616C5FDD
:102F0000636F727465782E63000000000CED00E0C2
:102F10000000FA052DE9F8431748016841F0805197
:102F200001600068DFF8548000F0805001270090B5
:102F3000C8F84070FFF7E0FE04464FF47A75104E73
:102F400004E0FFF7D9FE001BA8420DD87068C0034B
:102F5000F7D5C8F84470FFF7CFFE044607E0FFF747
:102F6000CBFE001BA84202D90320BDE8F88370689D
:102F70008003F4D50020F8E74038024000000E42FC
:102F8000007000402DE9F0470C4605007ED028680F
:102F9000401E0E2804D94FF4147180A002F038FCB2
:102FA00014B3012C20D0022C1ED0032C1CD0042CD6
:102FB0001AD0052C18D0062C16D0072C14D0082CAB
:102FC00012D0092C10D00A2C0ED00B2C0CD00C2CAB
:102FD0000AD00D2C08D00E2C06D00F2C04D040F2B5
:102FE00051216EA002F014FCDFF8EC91D9F800003A
:102FF00000F00F01E0B28046A14208D2014689F8F4
:103000000010D9F8000000F00F00A0427BD1286822
:10301000724E810729D5400703D5306840F4E0504F
:1030200030602878000703D5306840F46040306095
:10303000A868A0B1802812D0902810D0A0280ED067
:10304000B0280CD0C0280AD0D02808D0E02806D05C
:10305000F02804D04FF41D7150A002F0D9FB306865
:10306000A96820F0F000084330602878C0073CD001
:103070005A4F6868083F98B1012821D0022822D011
:10308000032820D040F27B2144A000E03BE002F086
:10309000BFFB6868012813D0022814D0032812D07F
:1030A0003868800700282EDA3068696820F003004D
:1030B00008433060FFF720FE074641F2883A0DE0F2
:1030C00038688003EEE738688001EBE7FFF714FE0D
:1030D000C11B514502D90320BDE8F08730686968FB
:1030E00000F00C00B0EB810FF0D1D9F80010484689
:1030F00001F00F01A14208D980F80080006800F0BB
:103100000F00A04201D00120E6E728784FF4805458
:1031100040074FF4A0574FF4C0584FF4E05914D56E
:10312000E86860B1A0420AD0B84208D0404506D055
:10313000484504D040F2B92118A002F069FB30687C
:10314000E96820F4E050084330602878000715D57E
:10315000286960B1A0420AD0B84208D0404506D0E4
:10316000484504D04FF430710CA002F051FB306898
:10317000296920F4604040EAC100306000F05AF84C
:103180003168174AC1F30311515CC8401549086002
:103190000F20FFF7D9FD00209EE700002E2E5C4C8B
:1031A00069627261726965735C53544D333246349F
:1031B00078785F48414C5F4472697665725C5372FF
:1031C000635C73746D3332663478785F68616C5F0A
:1031D0007263632E63000000003C02400838024026
:1031E00008490108000000200148006870470000FD
:1031F000000000200448054900680968044AC1F33A
:103200008221515CC840704700000020083802400D
:10321000184901080448054900680968044AC1F3CF
:103220004231515CC840704700000020083802401D
:1032300018490108154810B5006810F00C01144831
:1032400013D0144B04290FD008290ED10F4C241F82
:10325000216801F03F022168490207D52068C0F3C8
:103260008810A0FB030106E0184610BD2168C1F3D9
:103270008811A1FB00010023FDF71EF82168C1F3AE
:103280000141491C4900B0FBF1F010BD0838024073
:103290000024F40040787D012DE9F84F04007CD033
:1032A00020680F2803D9F821ECA002F0B1FA2078A9
:1032B000F94DC00755D060684FF480364FF4A02711
:1032C00038B1B04205D0B84203D0FD21E3A002F0EE
:1032D0009FFAF14808300168C1F38101012909D042
:1032E0000068C0F3810002280BD1EB48001D006884
:1032F000400206D52868800333D560680028CED008
:103300002FE06068B04203D1286840F480300CE0C0
:10331000B842286803D140F480202860F4E720F404
:1033200080302860286820F480202860606860B1C0
:10333000FFF7E2FC064604E0FFF7DEFC801B642892
:103340007ED828688003F7D50BE0FFF7D5FC06464A
:1033500004E0FFF7D1FC801B6428F1D828688003C3
:10336000F7D42078DFF8349380074FF0000A50D567
:10337000E06830B1012804D040F22F11B7A002F06C
:1033800047FA20691F2804D94FF49871B3A002F0BE
:103390003FFAC1480830016800E091E011F00C0FDD
:1033A00009D00068C0F3810002280BD1BA48001D83
:1033B0000068400206D42868800714D5E068012818
:1033C0007ED110E0E068B0B10120C9F80000FFF73D
:1033D00093FC064604E0FFF78FFC801B0228AFD861
:1033E00028688007F7D52868216920F0F80040EAAE
:1033F000C10028600DE0C9F800A0FFF77DFC06467B
:1034000004E0FFF779FC801B022899D82868800720
:10341000F7D4207800072BD59F4FA14E60697437F1
:10342000C0B1012806D04FF4B8718CA002F0F0F9B9
:10343000606978B101203060FFF75EFC064605E068
:1034400042E1FFF759FC801B022886D838688007C4
:10345000F7D50DE0C6F800A0FFF74EFC064604E0E5
:10346000FFF74AFC801B0228B9D838688007F7D4D8
:103470002078400776D5A0684FF0000840B10128B9
:1034800006D0052804D04FF4CE7174A002F0C0F924
:10349000DFF804B20BF1400BDBF80000C0000CD4E5
:1034A000DBF8001041F08051CBF80010DBF8000091
:1034B0004FF0010800F0805000907A4F386800E02B
:1034C000CBE0C0050FD4386840F480703860FFF757
:1034D00013FC064604E0FFF70FFC801B022894D87B
:1034E0003868C005F7D56C4FA068703701280FD039
:1034F0000528386810D020F001003860386820F0C6
:1035000004003860A068B0B1FFF7F6FB06460EE095
:10351000386840F00100F4E740F004003860F7E755
:10352000FFF7EAFB811B41F2883081428DD8386871
:103530008007F5D50DE0FFF7DFFB064606E0FFF755
:10354000DBFB811B41F2883081428DD838688007CF
:10355000F5D4B8F1000F05D0DBF8001021F0805150
:10356000CBF80010A069002876D0012809D00228E5
:1035700007D040F2DF1139A002F04AF9A069002813
:10358000F2D0454808300068C0F38100022864D0BA
:10359000A069022805D0C9F860A0FFF7ADFB04467A
:1035A00095E0E06938B1B0F5800F04D04FF4F471C4
:1035B0002AA002F02DF9206A3F2804D940F2E9112F
:1035C00026A002F025F9606A3238B0F5BF7F04D931
:1035D0004FF4F57121A002F01BF9A06A02280AD06D
:1035E000042808D0062806D0082804D040F2EB11A1
:1035F0001AA002F00DF9E06A801E0D2804D94FF4DC
:10360000F67116A002F004F94F46C9F860A0FFF762
:1036100073FB064604E0FFF76FFB801B022853D8BC
:1036200028688001F7D4D4E907010843A16A1E4A3B
:10363000490802EB0141626A41EA8211084394F8A9
:103640002C1040EA01611448001D01600120386619
:10365000FFF752FB04462EE03CE03DE02E2E5C4C92
:1036600069627261726965735C53544D33324634DA
:1036700078785F48414C5F4472697665725C53723A
:10368000635C73746D3332663478785F68616C5F45
:103690007263632E6300000000380240000047425E
:1036A000800E4742007000400000FFFFFFF724FB40
:1036B000001B022808D828688001F7D50AE0FFF728
:1036C0001BFB001B022802D90320BDE8F88F2868E5
:1036D0008001F4D40020F8E70120F6E710B54FF0A0
:1036E000E02404280AD020B140F2D91105A002F04C
:1036F0008FF8206920F00400206110BD206940F09F
:103700000400F9E72E2E5C4C696272617269657380
:103710005C53544D3332463478785F48414C5F44B3
:1037200072697665725C5372635C73746D33326672
:103730003478785F68616C5F636F727465782E634C
:103740000000000010B5401EB0F1807F01D30120C1
:1037500010BD4FF0E02460610F21601700F099FE6A
:103760000020A06107202061002010BD70B504007A
:1037700022D0A0693D4900283D4A3E4B3E4E20687C
:103780001CD08D1588420BD0904209D0984207D0AA
:10379000B04205D0294639A002F03AF8A06930B30A
:1037A000A069A84223D0B0F5007F20D0B0F5407FBB
:1037B0001DD040F2011117E0012070BD884216D0E3
:1037C000904214D0984212D03B4988420FD03B49D6
:1037D00088420CD0B0420AD03949884207D03949D2
:1037E000884204D040F2051124A002F011F8A0682C
:1037F00038B1B0F5805F04D040F207111FA002F08D
:1038000007F8E06938B1B0F5004F04D04FF4847187
:103810001AA001F0FDFF94F83900002520B984F8C2
:103820003850204600F050F8242084F839002068F1
:10383000C16821F40051C160204601F01DF82068E4
:10384000016921F4904101612068416921F02A0158
:1038500041612068C16841F40051C160E5632020E6
:1038600084F8390084F83A00002070BD001001404F
:103870000044004000480040001401402E2E5C4CE3
:1038800069627261726965735C53544D33324634B8
:1038900078785F48414C5F4472697665725C537218
:1038A000635C73746D3332663478785F68616C5F23
:1038B000756172742E630000004C0040005000409F
:1038C00000780040007C004030B51E4887B0016899
:1038D00041F010010160006800F0100005901948E7
:1038E0001438016841F001010160016801F0010133
:1038F0000591016841F0010101600068072400F0B2
:10390000010005904FF4007000900220019001200A
:1039100002900320CDE903040B4D69462846FEF7CB
:10392000EDFF29150091049469462846FEF7E6FF4D
:10393000012200212520FFF75BFA2520FFF726FA58
:1039400007B030BD44380240000002402DE9F84382
:10395000044690F839001E4617460D46202850D1DF
:10396000A5B19FB194F8380001284AD0012084F80D
:1039700038004FF00008C4F83C80212084F839005A
:10398000FFF7BAF9A7848146E78426E00120BDE865
:10399000F883E08C401EE084A0684B46B0F5805F61
:1039A0004FF000024FF080012046009603D001F056
:1039B00005F9E8B90DE001F001F9C8B928882168D6
:1039C000C0F308004860206908B16D1C05E0AD1C1B
:1039D00003E0216815F8010B4860E08C0028D8D17D
:1039E0004B46002240212046009601F0E7F808B13E
:1039F0000320CCE7202084F8390084F838800020A8
:103A0000C5E70220C3E70000F0B5264887B001688B
:103A100041F080010160016801F0800105910168B9
:103A200041F080010160016801F0800105910168A9
:103A300041F080010160016801F080010591016899
:103A400041F00801016000684FF4806500F0080053
:103A500005900120CDE9005002900320124F039001
:103A600069463846FEF74AFF6C00694638460094BE
:103A7000FEF744FF6600694638460096FEF73EFFB3
:103A80000A4F694638460094FEF738FF064818305A
:103A9000056004600660002221463846FFF7F6F80C
:103AA00007B0F0BD30380240001C0240000C02405C
:103AB0002DE9FC41074615460E4600246846009352
:103AC0000AF036FD60F30704C4F3C000307020092B
:103AD000387001A9009800F04DF90099019A01444D
:103AE00000910A44511A022904DB68460AF026FDB7
:103AF00028800120BDE8FC812DE9FC410746002417
:103B00000E462546684600920AF012FD0146204600
:103B100061F307000009022819D101A9009800F0FB
:103B200029F9009905460844019900900144081AB2
:103B300002280CDB68460AF0FBFC60F3070404F083
:103B40000100387068460AF0F3FC30700125284601
:103B5000BDE8FC812DE9FC5F8046DDE90EA0002474
:103B6000CDE90004994617460E462546DDF834B0E7
:103B700068460AF0DDFC60F30704200903282CD115
:103B8000C4F3C00188F80010C4F34100306004F0B1
:103B90000100387001A9009800F0ECF80099054682
:103BA0000844019900904418224669460C980AF08E
:103BB000CEFC90B10098201A0FD43068002804DDA4
:103BC00068460AF0BBFCA9F800000098211ACAF860
:103BD000001000990125CBF800102846BDE8FC9F95
:103BE0002DE9FC4782464FF000090A9800901E46D6
:103BF000144688464D464F4668460AF099FC60F3E5
:103C000007052809092826D101A9009800F0B2F873
:103C1000009907460844019900904518281A02287F
:103C200019DB68460AF08AFCAAF80000C4F8009084
:103C30000DE02168414502DD4FF0FF370BE068469B
:103C40000AF076FC21688A00491C2160B050009877
:103C5000A842EED301273846BDE8FC872DE9F0479E
:103C60000026ADF5047D984614460F4682464FF473
:103C7000FA793546012A1AD0022C18D00024404681
:103C8000FCF7B0FBCDE90580CDE90276CDE9006512
:103C9000234600220496494607A800F0C1F9011EF8
:103CA00009DC4FF0FF300DF5047DBDE8F087FEF72D
:103CB000ABF80546E3E707A80FF090F8002802DA12
:103CC0006FF00100EFE73CB16FF00205012C05D069
:103CD000022C0CD0681FE6E70020E4E7052204214F
:103CE000504601F043F8002808DB0120DBE70522FD
:103CF0001146504601F03AF8002801DA2846D2E78A
:103D000043460022494607A800F0DCF9010007D02D
:103D100007A80FF063F8002805DA6FF00500C2E786
:103D20006FF00300BFE705221146504601F01EF870
:103D3000002802DA6FF00600B5E70220B3E7F8B515
:103D4000012400250E4607460D606D1C042D0FDC76
:103D500001216846B84701280AD19DF80000316862
:103D600000F07F0202FB0411E40131600006ECD494
:103D70002846F8BD024A10600248FFF7E0BF000085
:103D8000A00100204558000810B504460020CA17BD
:103D900001EB526323F07F02891ACAB2D9110029BC
:103DA00001DD42F08002225400F10100EFDC10BD81
:103DB000401C802801DA401C7047B0F5804F01DAC2
:103DC000801C70470349884201DAC01C7047001DFF
:103DD00070470000FFFF1F002DE9F84300258846CB
:103DE000164604464FF0FF3701210095B0470128E1
:103DF00016D169463046FFF7A2FF601C0099FFF715
:103E0000C3FF0099401C0B18434509DC21B1204435
:103E1000B0470099884203D1207860F307052F0945
:103E20003846BDE8F883F8B50024069E05460090A4
:103E3000042901DAA01EF8BD62F3071463F3C3047A
:103E4000062A24F0060200D1921CD1B268460FF077
:103E5000C1FF02210098FFF797FF009908440090E6
:103E6000314668460FF0BCFF0098401BF8BD0000CB
:103E70002DE9F84306460090884614460025104672
:103E800000F082F88146FFF793FF404502DDA81E4F
:103E9000BDE8F8832F46394667F3070168461031BD
:103EA0000FF098FF49460098FFF76EFF009908440D
:103EB0000090207A04281DD02FA168460FF076FFCD
:103EC000032168460FF086FFA07E67F3070560F3C5
:103ED0004105E07E08B145F00405680707D594F870
:103EE0003D0060F3C40594F83C0060F34515206C78
:103EF00040B905E022A168460FF058FF0421E0E731
:103F0000A06C08B145F08005E06C08B9606D08B19F
:103F100045F04005294668460FF05CFF218B684656
:103F20000FF05EFF04F10C0168460EC90FF067FF49
:103F3000E07E68B12434684694E80E00243C0FF01B
:103F40005EFF3034684694E80E00303C0FF057FFB7
:103F5000280605D504F1400168460EC90FF04FFF51
:103F6000680605D54C34684694E80E000FF047FF0C
:103F70000098801B8CE700004D514973647000006D
:103F80004D5154540000000070B50446007A0025DD
:103F9000032802D0042802D002E00C2500E00A2504
:103FA00004F10C0007C800F06BFA0544E07EAD1C7C
:103FB00078B1243494E80700243C00F061FA3034EE
:103FC000064694E80700303C00F05AFA30440544B5
:103FD0002D1D206C08B9A16C29B1D4E9111200F093
:103FE0004FFA0544AD1CE06C08B9616D29B1D4E904
:103FF000141200F045FA0544AD1C284670BD0C2291
:1040000000F0C3B808B5002300920422FFF70BFFAD
:1040100008BD08B5002300920722FFF704FF08BD82
:104020002DE9FC5F1C46129ECDE90060DDF838B03A
:104030009046DDF830A0DDE90F2389460546594654
:10404000204600F030F80746FFF7B2FE484503DD92
:104050006FF00100BDE8FC9F302168F3C30164F3F9
:1040600042016AF3000101A80FF0B4FE394601983D
:10407000FFF78AFE019908440190DDE90F235946B4
:1040800001A80FF0BCFE002C03DD01A80D990FF074
:10409000A7FE324611990198FCF766F90198304461
:1040A0000190401BD6E770B50E46114604461A46ED
:1040B0003046049D00F0E4F92844801C002C00DD0B
:1040C000801C70BD08B5009313460622FFF7ABFEB7
:1040D00008BD2DE9FF4F83B08A46DDE9108706460B
:1040E000002501909346DDF848902C46394640461D
:1040F00000F035F80090FFF75BFE504503DDA81E89
:1041000007B0BDE8F08F65F3070580356BF3C30595
:1041100025F00600801CC1B201A80FF05BFEDDE9AE
:104120000010FFF731FE01990844019001A806999B
:104130000FF056FE0EE004EB440007EB800501A8EB
:1041400095E80E000FF05BFE19F8241001A80FF09F
:1041500041FE641C4445EEDB0198801BD0E72DE94D
:10416000F04102250E460746002409E004EB440016
:1041700006EB800007C800F083F90544641CED1CC1
:10418000BC42F3DB2846BDE8F08138B50023044685
:104190000090022901DA981E38BD194663F3070121
:1041A00062F3071168460FF015FE00210098FFF733
:1041B000EBFD00990144081B009138BD2DE9F04149
:1041C000A6B00446002023900223CDE91E03ADF8DB
:1041D00084001D901C902090229004F00700012381
:1041E00003FA00F7E017642622AD04EB507005EBEC
:1041F000E005042C02D228783843287024921C91C0
:1042000024A81CA90093DFF8A880CDE90110D8F8F4
:104210000800002283B2401CC8F80800314603A8F9
:10422000FFF757FF014603A80EF0D8FD002804DA77
:104230004FF0FF3026B0BDE8F0811FA800230090AA
:104240001A4622A9601C06F03DFA88B1042C02D25D
:104250002878384202D16FF00200EBE7154A314668
:1042600003A8FFF7B9FD092805D06FF00300E1E7C7
:104270006FF00100DEE703A8CDE9000625AB23AA15
:10428000012121A8FFF7ACFC012802D06FF0040047
:10429000D0E72598802806D0D8F80800BDF884100B
:1042A000401E814202D06FF00500C3E70020C1E745
:1042B00020000020712D010810B5CAB058222549F0
:1042C00032A8FCF751F824A035903220ADF8E00078
:1042D00024A0429028A0459004208DF8D000012011
:1042E000C8248DF8E20032AA21466846FFF7C0FDD7
:1042F000014668460EF072FD244A21466846FFF7E3
:104300006BFD022808D022A000F056FD24A000F08A
:1043100053FD02204AB010BD23466A4648A949A869
:10432000FFF7EAFB012802D19DF8200148B118A04F
:1043300000F042FD9DF820111EA000F03DFD01207F
:10434000E8E713A000F038FD21A000F035FD0020C3
:10435000E0E7000020490108636C69656E745F49FD
:10436000440000007375367A3462682F73746D33BD
:1043700032663432390000005A384E305A4177469E
:10438000373765355664324E00000000712D010844
:104390000D0A5B44454255475D203E3E200000002B
:1043A0004D515454C1ACBDD3CEDECFECD3A6A3A1A6
:1043B0000A000000CEDEB7A8C1ACBDD3A3ACB4EDFB
:1043C000CEF3B4FAC2EBCAC73A202564A3A10A000F
:1043D000D3C3BBA7C3FBD3EBC3DCD4BFD1E9D6A403
:1043E000B3C9B9A6A3AC4D515454C1ACBDD3B3C9E4
:1043F000B9A6A3A10A000000F0B5B7B00446052095
:10440000339000203490359004F007000126864058
:10441000E017C82735A904EB507001EBE005042C28
:1044200002D2287830432870394601A8FFF7E7FD0B
:10443000014601A80EF0D2FC33A8002300901A46D2
:1044400035A9601C06F03EF990B1042C02D2287800
:10445000304203D16FF0010037B0F0BD074A394652
:1044600001A8FFF7B9FC0D2805D06FF00200F3E7B3
:104470004FF0FF30F0E70020EEE70000712D01085B
:104480000200084602D01046FBF7ACBF7047FEE7BB
:1044900070470907090E002806DA00F00F0000F146
:1044A000E02080F8141D704700F1E02080F800142F
:1044B000704700002DE9FC41044616A000F07CFC8A
:1044C00018A000F079FC204601F0F1FA04461AA188
:1044D00001F0C6FA05461AA1204601F0C1FA0646C7
:1044E00019A1204601F0BCFA07460AA000F064FCBE
:1044F00097ED060B15A08DED000B96ED060B2969C7
:1045000053EC102B00F058FC2046BDE8FC4101F0B4
:1045100083BA00000D0A5B44454255475D203E3E8C
:1045200020000000BFAACABCBDE2CEF64A534F4EDF
:10453000CAFDBEDD000000006E616D650000000078
:1045400074656D700000000068756D006E616D65CA
:104550003A25730A2074656D705F6E756D3A256635
:104560000A2068756D5F6E756D3A25660A00000059
:104570002DE9FF411746884604462BB30020CDE9BC
:104580000130039004F0070001268640E01703A9DC
:1045900004EB507001EBE005042C02D22878304384
:1045A000287001A8002300901A46601C06F08AF8C3
:1045B0004FF0FF3120B1042C02D22878304203D1D1
:1045C000084604B0BDE8F081024A39464046FFF78C
:1045D00003FCF6E7712D010810B55020EFF31184AC
:1045E00080F31188BFF34F8FBFF36F8FFEF78AFB05
:1045F0000FF0E2FF012801D00FF0A4FC84F3118832
:1046000010BD000030B5264893B00025016841F088
:1046100080510160006800F08050119021480168CD
:1046200041F4404101600068022400F440401190D0
:1046300001200090000401908001CDE9064019207E
:1046400008904FF4B470CDE9090407200B90684638
:10465000FEF722FE00B1FEE7FEF75CFC0CA90F207E
:1046600081E831004FF4A0500F904FF4805010902B
:1046700005210CA8FEF786FC00B1FEE7FEF7B4FDAD
:104680004FF47A71B0FBF1F0FFF75CF80420FFF70C
:1046900025F800221146501EFEF7AAFB13B030BDCC
:1046A00040380240007000401048016841F4700139
:1046B00001600F48016841F0010101600C4A0021CE
:1046C0000832116002680B4B1A400260031D0A4A4F
:1046D0001A60026822F48022026005480C300160F2
:1046E00002495806803908607047000088ED00E0F4
:1046F00000380240FFFFF6FE103000243EB50021D6
:1047000008460EF0E7F9194817491A4A0160174997
:104710006FF07F40091D154B0860091D14480860A3
:10472000154900208DE8070008331A1F111F134890
:1047300007F090FE114808F00BF8104C94F82D008B
:104740004007204602D508F02BF801E008F006F8F3
:104750006068010E0091C0F30743C0F30722C1B2A5
:1047600007A000F029FB3EBDC0A8007A9001002000
:10477000C0A80001D12B0108B175000850850220A6
:10478000B1BEB5D84950B5D8D6B7CAC73A25642EF8
:1047900025642E25642E25640A0A00000EB5FCF758
:1047A000C3FFFDF727F9184C184E194D4FF47A78CE
:1047B0000FF056F81448FDF791F907460FF08AF804
:1047C0000294012F18D194ED040B12A08DED000B73
:1047D00094ED020B53EC102B00F0EEFA00231A4676
:1047E00002A9F0680FF05EFD012805D112A000F0CB
:1047F000E3FA15A000F0E0FA286880F480602860F1
:1048000040460FF071F9D3E7E001002010000020CE
:10481000141C024068756D6964697479203D202517
:1048200066202C2074656D706572617475726520E8
:104830003D2025660A0000000D0A5B4445425547AD
:104840005D203E3E20000000B7A2CBCDCFFBCFA223
:10485000CAFDBEDDB3C9B9A600000000054C4FF487
:10486000FA65206880F40061216028460FF03CF969
:10487000F7E70000141C02402DE9F04104464068AF
:10488000BC49884204D340F68511BBA000F0C0FFAC
:10489000E06838B1B0F5005F04D040F68611B6A0EC
:1048A00000F0B6FF206950B1B0F5806F07D0B0F5C9
:1048B000C06F04D040F68711AFA000F0A9FF606977
:1048C0004FF6F371084200D120B940F68811AAA032
:1048D00000F09EFF2068016921F44052E168114315
:1048E00001612068C26849F20C618A432369A168AA
:1048F000E569194363692B4319431143C16020687B
:104900004169A26921F440710A434261E06964256A
:10491000B0F5004FA74AA84920684FF032083FD0B1
:10492000884201D090427CD1FEF774FC00EBC001BC
:1049300001EB001061688900B0FBF1F6FEF76AFC3C
:1049400000EBC00101EB001061688900B0FBF1F0E1
:10495000B0FBF5F06FF01801484306EB800108EB5F
:104960000110B0FBF5F000F0F006FEF753FC00EB91
:10497000C00101EB001061688900B0FBF1F0B0FBF1
:10498000F5F006EB0016FEF745FC00EBC00101EB6D
:10499000001061688900B0FBF1F7FEF73BFCD2E044
:1049A000884201D090423DD1FEF734FC00EBC001BB
:1049B00001EB001061684900B0FBF1F0B0FBF5F0CD
:1049C0000601FEF727FC00EBC00101EB0010616857
:1049D0004900B0FBF1F7FEF71DFC00EBC00101EB55
:1049E000001061684900B0FBF1F0B0FBF5F06FF02A
:1049F0001801484307EB800108EBC100B0FBF5F05C
:104A000000F0F80006EB4006FEF704FC00EBC001E6
:104A100001EB001061684900B0FBF1F7FEF7FAFB0B
:104A20003CE055E0FEF7E6FB00EBC00101EB0010B7
:104A300061684900B0FBF1F0B0FBF5F00601FEF74C
:104A4000D9FB00EBC00101EB001061684900B0FB2D
:104A5000F1F7FEF7CFFB00EBC00101EB001061683E
:104A60004900B0FBF1F0B0FBF5F06FF018014843DE
:104A700007EB800108EBC100B0FBF5F000F0F80097
:104A800006EB4006FEF7B6FB00EBC00101EB0010A1
:104A900061684900B0FBF1F7FEF7ACFB00EBC00129
:104AA00001EB001061684900B0FBF1F0B0FBF5F0DC
:104AB0006FF01801484307EB800108EBC100B0FB21
:104AC000F5F000F00700216830448860BDE8F0810F
:104AD000FEF790FB00EBC00101EB0010616889005C
:104AE000B0FBF1F6FEF786FB00EBC00101EB001016
:104AF00061688900B0FBF1F0B0FBF5F06FF01801D0
:104B0000484306EB800108EB0110B0FBF5F000F024
:104B1000F006FEF76FFB00EBC00101EB00106168CF
:104B20008900B0FBF1F0B0FBF5F006EB0016FEF7E4
:104B300061FB00EBC00101EB001061688900B0FB74
:104B4000F1F7FEF757FB00EBC00101EB00106168C5
:104B50008900B0FBF1F0B0FBF5F06FF018014843AD
:104B600007EB800108EB0110B0FBF5F000F00F003F
:104B7000A9E70000A137A0002E2E5C4C696272618B
:104B8000726965735C53544D3332463478785F48AC
:104B9000414C5F4472697665725C5372635C7374F6
:104BA0006D3332663478785F68616C5F75617274FA
:104BB0002E63000000140140001001402DE9F04177
:104BC0001E46174688460446069D1CE0681C1AD0FF
:104BD00025B1FEF791F8801BA84214D92068C1685E
:104BE00021F4D071C1602068416921F00101416167
:104BF000202084F8390084F83A00002084F8380036
:104C00000320BDE8F0812068016838EA010004D083
:104C10000020B842DAD00020F3E70120F9E7FEE7F0
:104C200010B504461EA000F0C7F821A000F0C4F89B
:104C3000207840B101280BD0022819A02CD000F018
:104C4000BBF823A008E016A000F0B6F826A003E009
:104C500013A000F0B1F82AA000F0AEF810A000F008
:104C6000ABF804F5FE712CA000F0A6F80CA000F043
:104C7000A3F8611C2DA000F09FF809A000F09CF89B
:104C80002FA0D4F8F81100F097F8601CFFF712FC81
:104C9000002084F8300210BD00F08EF82DA0DBE774
:104CA0000D0A5B44454255475D203E3E2000000012
:104CB0002A2A2A2A2ACAD5B5BDB6A9D4C4B5C4CFD2
:104CC000FBCFA2A3A12A2A2A2A2A2A0A000000002E
:104CD0004D5154543E3EB4EDCEF3B5C4CFFBCFA2FC
:104CE000D6CAC1BF0A0000004D5154543E3ECFFB0E
:104CF000CFA2D6CAC1BFA3BA516F53300A00000079
:104D00004D5154543E3ECFFBCFA2D6CAC1BFA3BA29
:104D1000516F53310A0000004D5154543E3ECFFBB9
:104D2000CFA2D6F7CCE2A3BA25730A004D51545452
:104D30003E3ECFFBCFA2C0E0C8DDA3BA25730A0078
:104D40004D5154543E3ECFFBCFA2B3A4B6C8A3BA34
:104D500025640A004D5154543E3ECFFBCFA2D6CA23
:104D6000C1BFA3BA516F53320A0000002DE9F043CE
:104D7000FDB017460E46814600254FF4FA7802230F
:104D8000424669464846FFF7F3FB0446401C04D000
:104D9000E0B24246694606F0CDFB6D1CEDB2B4426E
:104DA00001D0BD42EBD3B44203D100207DB0BDE8B9
:104DB000F0834FF0FF30F9E70FB4054B10B503A9AE
:104DC000044A029800F00AF910BC5DF814FB0000D8
:104DD00069790008D80100200FB4084B10B504A968
:104DE00002AA039800F0FAF8044602A9002000F095
:104DF0008CFC204610BC5DF814FB00000B5700082B
:104E000000B583B09FED060B0A4601468DED000B01
:104E10006846FBF72AFE9DED000B03B000BD0000C5
:104E2000000000000000000002E008C8121F08C1D6
:104E3000002AFAD170477047002001E001C1121F1B
:104E4000002AFBD1704700002DE9FF5F82B00021EE
:104E5000DDE90430020DDDF840B0034318D044F61C
:104E60001050A2F2FF3242431514119801281FD0AE
:104E7000A5EB0B00401C5FEA000A4FF000064E4F06
:104E8000DFF83891B046504615D5CAF1000413E05A
:104E9000119801244AA3012801D16FEA0B0102985D
:104EA000119AC0E90031C0E9024206B0BDE8F09FA6
:104EB000CBF10000DFE704460021404A491842EBED
:104EC0000450CDE9001012E0E00707D032463B461F
:104ED00040464946FBF700FF8046894632463B463E
:104EE00010461946FBF7F8FE06460F466410002CE4
:104EF000EAD1DDE90401DDE90023BAF1000F06DAA9
:104F0000FBF7EAFE42464B46FBF7E6FE05E0FBF701
:104F10005BFC42464B46FBF757FC04460E4600221C
:104F2000284BFBF705FD03D84FF0FF30014607E0A3
:104F30000022254B20463146FBF727FEFBF74AFFB0
:104F4000102409E0002C0ADB0A220023FBF7B4F945
:104F5000039B30321A55641E50EA0102F2D1641CE0
:104F6000039AC4F111031444119A012A03D00122B7
:104F700008430DD10AE0084304D000204FF0110B84
:104F8000119072E7A3EB0B056D1E0DE05B4504DD90
:104F90004FF0000205F1010504E003DA4FF00002D2
:104FA000A5F10105002AECD002981199C0E902315F
:104FB000C0E9004579E70000000014400000F03F20
:104FC000300000000000F0430000E03F30380A28C5
:104FD00001D2012070470020704700002DE9FF4FEB
:104FE00095B09B468946064600250FE2252877D1D5
:104FF00000242746F84A0121059400E0044316F8EE
:10500000013F203B01FA03F01042F7D130782A2803
:1050100011D06FF02F033078A0F13002092A16D892
:10502000059A44F0020402EB820203EB42021044B0
:10503000761C0590EFE759F8042B0592002A03DA55
:10504000504244F40054059044F00204761C307839
:105050002E2816D116F8010F44F004042A280DD08A
:105060006FF02F023078A0F13003092B09D807EB3D
:10507000870302EB4303C718761CF3E759F8047B58
:10508000761C30786C280FD006DC4C2817D06828A6
:105090000DD06A2814D104E0742810D07A280FD1DA
:1050A0000DE044F400140AE044F4801401E044F4F8
:1050B00040147278824202D104F58014761C761C6A
:1050C000307866280BD013DC582877D009DC00280C
:1050D00075D04528F6D04628F4D047281AD19DE14E
:1050E00018E0632835D0642879D0652812D195E17D
:1050F000702873D008DC6728F1D069286FD06E283B
:105100000DD06F2806D1B5E073282CD0752875D046
:10511000782874D05A46179990476D1C75E1C4F3EE
:105120000250022809D003280DD0D9F80010042815
:105130000DD00D6009F1040967E1D9F80010EA17F4
:10514000C1E90052F6E7D9F800100D80F2E70D70C2
:10515000F0E719F8041B8DF8001000208DF801000D
:10516000EA46012003E059F804AB4FF0FF30610735
:105170004FF0000102D40DE008F101018846B94268
:105180000FDA8045F8DB1AF808100029F4D108E09E
:1051900008F1010188468142FADB1AF8081000295B
:1051A000F6D105985B46A0EB080721463846179ACA
:1051B00000F094FA284400EB080507E04DE029E1EF
:1051C0000DE01AF8010B5A4617999047B8F10108FB
:1051D000F7D25B4621463846179A13E142E00A228D
:1051E0000092C4F302524FF0000A022A08D059F884
:1051F00004CB032A4FEAEC710AD00DE029E02AE043
:1052000009F1070121F00702F2E802C1914609E025
:105210000FFA8CFC4FEAEC71042A03D14FFA8CFC94
:105220004FEAEC71002907DA0A460021DCF1000C94
:1052300061EB02012D2202E0220504D52B228DF81C
:105240000420012203E0E20701D02022F7E7904684
:1052500059E00A2102E010220DE010214FF0000A6F
:1052600000910BE010224FF0000A44F004040827DC
:10527000009203E008224FF0000A0092C4F30252A9
:10528000022A05D059F804CB0021032A08D009E0EE
:1052900009F1070121F00702F2E802C1914605E099
:1052A0001FFA8CFC042A01D10CF0FF0C4FF000080F
:1052B000220728D5702806D0009B83F0100353EAFC
:1052C0000A0305D00EE040228DF80420012208E0F8
:1052D0005CEA010206D030228DF804208DF805002A
:1052E00002229046009B83F0080353EA0A030AD186
:1052F0005CEA010201D1620705D530228DF8042055
:105300004FF001087F1E582804D034A003900EA847
:1053100002900DE036A0F9E753466046009AFAF78E
:10532000CBFF84460398825C0298401E0290027074
:105330005CEA0100F0D1029806A9081A00F1200ADF
:10534000600702D524F4803400E00127574502DDD0
:10535000A7EB0A0000E0002000EB0A01009005988E
:105360004144401A0590E00306D45B462146179A53
:10537000059800F0B3F90544002706E001A85A4655
:10538000C05D179990476D1C7F1C4745F6DBE00315
:105390000CD55B462146179A059800F09FF9054405
:1053A00004E030205A46179990476D1C0099481E1A
:1053B00000900029F5DC08E0029802995A4600782E
:1053C000491C0291179990476D1CBAF10001AAF18E
:1053D000010AF1DC65E100000928010030313233B7
:1053E0003435363738396162636465660000000021
:1053F000303132333435363738394142434445460B
:105400000000000000F058F90544761C30780028B0
:105410007FF4ECAD19B02846BDE8F08F620700D4E8
:10542000062709F1070222F0070CFCE80223E146F7
:1054300003F000485FEA080C02D00FF2702C0DE078
:105440005FEA045C02D50FF2682C07E05FEAC47CD7
:1054500002D00FF2602C01E0AFF2700C4FF0FF3879
:1054600023F00043CDF850C065280CD006DC452859
:1054700009D046281DD047283DD13DE0662818D0E8
:1054800067287ED138E00021112F01DB112000E0D8
:10549000781CCDE9000106A90EA8FFF7D5FCDDE9CF
:1054A0000F010E9A03910021009207F1010A049165
:1054B0004DE04FF000400097CDE9011006A90EA87D
:1054C000FFF7C2FCDDE90F0203920E9B1199002247
:1054D000DDF80CA00093049211B9791C00EB010ACD
:1054E000B7EB0A0004D4C0F1FF3007F1010A0490C1
:1054F000AAEB0700019044E0012F00DA0127002108
:10550000112F01DD112000E03846CDE9000106A988
:105510000EA8FFF799FCDDE90F010E9A0391002117
:1055200004910092BA4621070CD40399514500DA40
:105530008A46BAF1010F05DD009AAAF10101515C1A
:10554000302908D0B84202DA10F1040F06DA01213E
:10555000CDE9011015E0AAF10101E9E7002805DC19
:10556000049901440491AAEB000102E0411C514559
:1055700000DD8A460499401A401C01904FF000401B
:105580000290200704D40198504501DBCDF8048037
:1055900000208DF84F0002980DF14F07B0F1004F39
:1055A00025D02B200E9002984FF0020800280CDA2C
:1055B000404202902D200E9007E00A210298FBF74E
:1055C000CFF93031029007F8011DB8F10001A8F1C0
:1055D0000108F2DC02980028EFD1791E0E980870BD
:1055E000307800F0200040F0450007F8020D12A8C6
:1055F000C01B00F107081498007800B1012000EBEF
:105600000A01019801EBE07105984144401A401EDF
:105610000590E00306D45B462146179A059800F0F2
:105620005DF805441498007818B15A4617999047C8
:105630006D1CE00324D55B462146179A059800F0BF
:105640004DF805441CE00498002807DBDDE9030160
:10565000884203DD0098405C179901E017993020DB
:105660005A469047049805F10105401C04900198A2
:10567000401E019004D12E205A46179990476D1C68
:10568000BAF10001AAF1010ADDDC05E017F8010B0F
:105690005A46179990476D1CB8F10001A8F101080E
:1056A000F4DC5B462146179A0598ABE62D00000016
:1056B0002B000000200000002DE9F04104460025E9
:1056C0001E461746880404D405E039462020B0471A
:1056D0006D1C641EF9D52846BDE8F0812DE9F04126
:1056E000044600251E469046C80301D5302700E039
:1056F0002027880404D505E041463846B0476D1C94
:10570000641EF9D52846BDE8F0810A68531C0B6079
:105710001070704719B110B1826812B104E0002016
:105720007047816005E0024610680028FBD11160D7
:105730004A60012070472DE9F0410D4606991F4649
:1057400014465FEA000806D02DB124B131B1E068FB
:1057500040F400760BE00020BDE8F08119462846B1
:1057600000F054FA051EF7D0E06820F40076A08916
:10577000800503D4206A08B179688847E66021462D
:1057800040462562BDE8F041FFF7C4BF2DE9F04176
:10579000884606460024154D09F0E4F805EB04118F
:1057A000096841B109F000F9641C042CF4DB4FF0E6
:1057B000FF30BDE8F08105EB04152E6009F0F4F828
:1057C00000276F60A87B10B109A0FFF7F5FA2F81C1
:1057D00030780121B1EB101F02D15FEA080000D040
:1057E00001206881AF812046E3E7000058F90020DE
:1057F000736F636B6574735B695D2E73656C656352
:10580000745F77616974696E67203D3D20300000E8
:105810000C460546FAF7DAFC00F00CFA2246294657
:1058200001A0FFF7C9FAFEE7617373657274206621
:1058300061696C65642061742025733A2564200ACF
:105840000000000030B50022054C05E02368521C22
:1058500013F8015B057023608A42F7DB084630BD10
:10586000A001002010B588B103687BB1426881684F
:10587000914206D25C5C202C03D8491C8160002830
:10588000F5D1914201D1491E816010BD002010BDAB
:10589000F8B50C46054600F02BF8064600200090AF
:1058A000064B324621462846FFF745FF0028304682
:1058B00002D100F0B1F80020F8BD0000B0010020D6
:1058C000F8B505460C46104600F05AF8064600208A
:1058D0000090064B324621462846FFF72CFF002851
:1058E000304602D100F098F80020F8BDB001002049
:1058F00010B518482DED028BB0EE408AF0EE608AAC
:1059000000F0CAF8040020D00820E0609FED120BE0
:1059100084ED068B53EC102B51EC180BFBF708F8B9
:1059200002D86FF000400FE09FED0D0B51EC180B0B
:1059300053EC102BFAF7E4FF02D84FF0004003E0DD
:1059400051EC180BFAF7BCFF60612046BDEC028BEE
:1059500010BD0000B00100200000C0FFFFFFDF41CC
:10596000000000000000E0C110B5044800F094F809
:10597000002801D04021C16010BD0000B00100200E
:1059800070B50546094800F087F8040007D01020DC
:10599000E0600649284600F039F9206108B1204648
:1059A00070BD204600F038F8002070BDB001002026
:1059B00010B5FFF7D9FF040016D00CA20DA1FFF718
:1059C0007FFF9FED0E0B0FA12046FFF761FF9FEDBC
:1059D0000F0B10A12046FFF75BFF204600F0DEF81A
:1059E0000DF0A8FF204610BD002010BD666972654D
:1059F000000000006E616D65000000000000000006
:105A00000000394074656D70000000000000000067
:105A10000000494068756D0070B504460F4E19E0EE
:105A2000A0892568C0050AD4A06820B1FFF7F4FF5B
:105A3000A089C00503D4206908B171688847A0898E
:105A4000800503D4206A08B17168884771682046D0
:105A500088472C46002CE3D170BD0000B001002027
:105A6000002201F0A8BF002803D0007B800700D0EF
:105A700001207047002803D0007B082801D00020B7
:105A8000704701207047002803D0007B102801D008
:105A9000002070470120704710B501682820884712
:105AA000040002D02821FAF786FC204610BD00220F
:105AB000114600F001B800002DE9F04788B00C460F
:105AC000054692461C216846FAF775FC31480026C7
:105AD000002D066046605AD028460095FAF782FCF1
